{
  "address": "0x05e4f6A15Ef1016691332c94037694031FC26F35",
  "abi": [
    {
      "inputs": [],
      "stateMutability": "nonpayable",
      "type": "constructor"
    },
    {
      "anonymous": false,
      "inputs": [
        {
          "indexed": true,
          "internalType": "address",
          "name": "user",
          "type": "address"
        },
        {
          "indexed": false,
          "internalType": "uint256",
          "name": "discountPercentage",
          "type": "uint256"
        }
      ],
      "name": "DiscountApplied",
      "type": "event"
    },
    {
      "anonymous": false,
      "inputs": [
        {
          "indexed": true,
          "internalType": "string",
          "name": "cid",
          "type": "string"
        },
        {
          "indexed": true,
          "internalType": "address",
          "name": "owner",
          "type": "address"
        },
        {
          "indexed": true,
          "internalType": "address",
          "name": "recipient",
          "type": "address"
        }
      ],
      "name": "FileShared",
      "type": "event"
    },
    {
      "anonymous": false,
      "inputs": [
        {
          "indexed": true,
          "internalType": "address",
          "name": "user",
          "type": "address"
        },
        {
          "indexed": false,
          "internalType": "string",
          "name": "cid",
          "type": "string"
        },
        {
          "indexed": false,
          "internalType": "string",
          "name": "fileType",
          "type": "string"
        },
        {
          "indexed": false,
          "internalType": "uint256",
          "name": "timestamp",
          "type": "uint256"
        },
        {
          "indexed": false,
          "internalType": "uint256",
          "name": "duration",
          "type": "uint256"
        },
        {
          "indexed": false,
          "internalType": "bool",
          "name": "isPublic",
          "type": "bool"
        },
        {
          "indexed": false,
          "internalType": "uint256",
          "name": "rewardPoints",
          "type": "uint256"
        }
      ],
      "name": "FileUploaded",
      "type": "event"
    },
    {
      "anonymous": false,
      "inputs": [
        {
          "indexed": true,
          "internalType": "address",
          "name": "user",
          "type": "address"
        },
        {
          "indexed": false,
          "internalType": "string",
          "name": "feature",
          "type": "string"
        },
        {
          "indexed": false,
          "internalType": "uint256",
          "name": "price",
          "type": "uint256"
        }
      ],
      "name": "PremiumFeaturePurchased",
      "type": "event"
    },
    {
      "anonymous": false,
      "inputs": [
        {
          "indexed": true,
          "internalType": "address",
          "name": "user",
          "type": "address"
        },
        {
          "indexed": false,
          "internalType": "uint256",
          "name": "points",
          "type": "uint256"
        },
        {
          "indexed": false,
          "internalType": "uint256",
          "name": "totalPoints",
          "type": "uint256"
        }
      ],
      "name": "RewardPointsEarned",
      "type": "event"
    },
    {
      "anonymous": false,
      "inputs": [
        {
          "indexed": true,
          "internalType": "address",
          "name": "user",
          "type": "address"
        },
        {
          "indexed": false,
          "internalType": "uint256",
          "name": "startTime",
          "type": "uint256"
        },
        {
          "indexed": false,
          "internalType": "uint256",
          "name": "endTime",
          "type": "uint256"
        },
        {
          "indexed": false,
          "internalType": "uint256",
          "name": "storageLimit",
          "type": "uint256"
        }
      ],
      "name": "SubscriptionPurchased",
      "type": "event"
    },
    {
      "inputs": [],
      "name": "BASE_REWARD_POINTS",
      "outputs": [
        {
          "internalType": "uint256",
          "name": "",
          "type": "uint256"
        }
      ],
      "stateMutability": "view",
      "type": "function"
    },
    {
      "inputs": [],
      "name": "MAX_DISCOUNT",
      "outputs": [
        {
          "internalType": "uint256",
          "name": "",
          "type": "uint256"
        }
      ],
      "stateMutability": "view",
      "type": "function"
    },
    {
      "inputs": [],
      "name": "POINTS_TO_DISCOUNT",
      "outputs": [
        {
          "internalType": "uint256",
          "name": "",
          "type": "uint256"
        }
      ],
      "stateMutability": "view",
      "type": "function"
    },
    {
      "inputs": [],
      "name": "PREMIUM_FEATURE_FEE",
      "outputs": [
        {
          "internalType": "uint256",
          "name": "",
          "type": "uint256"
        }
      ],
      "stateMutability": "view",
      "type": "function"
    },
    {
      "inputs": [],
      "name": "REWARD_MULTIPLIER",
      "outputs": [
        {
          "internalType": "uint256",
          "name": "",
          "type": "uint256"
        }
      ],
      "stateMutability": "view",
      "type": "function"
    },
    {
      "inputs": [],
      "name": "SUBSCRIPTION_DURATION",
      "outputs": [
        {
          "internalType": "uint256",
          "name": "",
          "type": "uint256"
        }
      ],
      "stateMutability": "view",
      "type": "function"
    },
    {
      "inputs": [],
      "name": "TRANSFER_FEE",
      "outputs": [
        {
          "internalType": "uint256",
          "name": "",
          "type": "uint256"
        }
      ],
      "stateMutability": "view",
      "type": "function"
    },
    {
      "inputs": [
        {
          "internalType": "string",
          "name": "_cid",
          "type": "string"
        },
        {
          "internalType": "address",
          "name": "user",
          "type": "address"
        }
      ],
      "name": "getFileAccess",
      "outputs": [
        {
          "internalType": "bool",
          "name": "",
          "type": "bool"
        }
      ],
      "stateMutability": "view",
      "type": "function"
    },
    {
      "inputs": [
        {
          "internalType": "string",
          "name": "_cid",
          "type": "string"
        }
      ],
      "name": "getFileOwner",
      "outputs": [
        {
          "internalType": "address",
          "name": "",
          "type": "address"
        }
      ],
      "stateMutability": "view",
      "type": "function"
    },
    {
      "inputs": [
        {
          "internalType": "address",
          "name": "user",
          "type": "address"
        }
      ],
      "name": "getSubscriptionDetails",
      "outputs": [
        {
          "internalType": "uint256",
          "name": "startTime",
          "type": "uint256"
        },
        {
          "internalType": "uint256",
          "name": "endTime",
          "type": "uint256"
        },
        {
          "internalType": "uint256",
          "name": "storageLimit",
          "type": "uint256"
        },
        {
          "internalType": "bool",
          "name": "isActive",
          "type": "bool"
        }
      ],
      "stateMutability": "view",
      "type": "function"
    },
    {
      "inputs": [
        {
          "internalType": "address",
          "name": "user",
          "type": "address"
        }
      ],
      "name": "getUserPremiumFeatures",
      "outputs": [
        {
          "components": [
            {
              "internalType": "bool",
              "name": "hasPrioritySupport",
              "type": "bool"
            },
            {
              "internalType": "bool",
              "name": "hasCustomDomain",
              "type": "bool"
            },
            {
              "internalType": "bool",
              "name": "hasAnalytics",
              "type": "bool"
            }
          ],
          "internalType": "struct DecentralizedFileVault.PremiumFeatures",
          "name": "",
          "type": "tuple"
        }
      ],
      "stateMutability": "view",
      "type": "function"
    },
    {
      "inputs": [
        {
          "internalType": "address",
          "name": "user",
          "type": "address"
        }
      ],
      "name": "getUserRewards",
      "outputs": [
        {
          "internalType": "uint256",
          "name": "points",
          "type": "uint256"
        },
        {
          "internalType": "uint256",
          "name": "discount",
          "type": "uint256"
        }
      ],
      "stateMutability": "view",
      "type": "function"
    },
    {
      "inputs": [
        {
          "internalType": "address",
          "name": "user",
          "type": "address"
        }
      ],
      "name": "hasActiveSubscription",
      "outputs": [
        {
          "internalType": "bool",
          "name": "isActive",
          "type": "bool"
        }
      ],
      "stateMutability": "view",
      "type": "function"
    },
    {
      "inputs": [],
      "name": "owner",
      "outputs": [
        {
          "internalType": "address",
          "name": "",
          "type": "address"
        }
      ],
      "stateMutability": "view",
      "type": "function"
    },
    {
      "inputs": [
        {
          "internalType": "string",
          "name": "feature",
          "type": "string"
        }
      ],
      "name": "purchasePremiumFeature",
      "outputs": [],
      "stateMutability": "payable",
      "type": "function"
    },
    {
      "inputs": [
        {
          "internalType": "enum DecentralizedFileVault.SubscriptionTier",
          "name": "tier",
          "type": "uint8"
        }
      ],
      "name": "purchaseSubscription",
      "outputs": [],
      "stateMutability": "payable",
      "type": "function"
    },
    {
      "inputs": [
        {
          "internalType": "string",
          "name": "_cid",
          "type": "string"
        },
        {
          "internalType": "address",
          "name": "_recipient",
          "type": "address"
        }
      ],
      "name": "shareFile",
      "outputs": [],
      "stateMutability": "nonpayable",
      "type": "function"
    },
    {
      "inputs": [
        {
          "internalType": "enum DecentralizedFileVault.SubscriptionTier",
          "name": "",
          "type": "uint8"
        }
      ],
      "name": "tierPrices",
      "outputs": [
        {
          "internalType": "uint256",
          "name": "",
          "type": "uint256"
        }
      ],
      "stateMutability": "view",
      "type": "function"
    },
    {
      "inputs": [
        {
          "internalType": "enum DecentralizedFileVault.SubscriptionTier",
          "name": "",
          "type": "uint8"
        }
      ],
      "name": "tierStorageLimits",
      "outputs": [
        {
          "internalType": "uint256",
          "name": "",
          "type": "uint256"
        }
      ],
      "stateMutability": "view",
      "type": "function"
    },
    {
      "inputs": [
        {
          "internalType": "address",
          "name": "newOwner",
          "type": "address"
        }
      ],
      "name": "transferOwnership",
      "outputs": [],
      "stateMutability": "nonpayable",
      "type": "function"
    },
    {
      "inputs": [
        {
          "internalType": "string",
          "name": "_cid",
          "type": "string"
        },
        {
          "internalType": "string",
          "name": "_fileType",
          "type": "string"
        },
        {
          "internalType": "uint256",
          "name": "_duration",
          "type": "uint256"
        },
        {
          "internalType": "bool",
          "name": "_isPublic",
          "type": "bool"
        },
        {
          "internalType": "string",
          "name": "_encryptedKey",
          "type": "string"
        }
      ],
      "name": "uploadFile",
      "outputs": [],
      "stateMutability": "nonpayable",
      "type": "function"
    },
    {
      "inputs": [
        {
          "internalType": "uint256",
          "name": "amount",
          "type": "uint256"
        }
      ],
      "name": "withdraw",
      "outputs": [],
      "stateMutability": "nonpayable",
      "type": "function"
    }
  ],
  "transactionHash": "0xe222d0a2188ac55b3e2fe7b6a0d72775a585b4ec733b0b771ec0fcc0908ee03f",
  "args": [],
  "numDeployments": 1,
  "solcInputHash": "90ea5bb8a77c82fb98a51141abce91e6",
  "bytecode": "0x608060405234801561001057600080fd5b5060008054336001600160a01b0319909116178155662386f26fc100007f54cdd369e4e8a8515e52ca72ec816c2101831ad1f18bf44102ed171459c9b4f85566470de4df8200007f3e5fec24aa4dc4e5aee2e025e51e1392c72a2500577559fae9665c6d52bd6a315566b1a2bc2ec500007f8819ef417987f8ae7a81f42cdfb18815282fe989326fbff903d13cf0e03ace29556007602052600a7f6d5257204ebe7d88fd91ae87941cb2dd9d8062b64ae5a2bd2d28ec40b9fbf6df5560327fb39221ace053465ec3453ce2b36430bd138b997ecea25c1043da0c366812b82855600290526000197fb7c774451310d1be4108bc180d1b52823cb0ee0274a6c0081bcaf94f115fb96d55611e25806101286000396000f3fe6080604052600436106101755760003560e01c8063b8729116116100cb578063e34955691161007f578063ebceb82c11610059578063ebceb82c14610485578063f2fde38b146104a5578063f6847c82146104c557600080fd5b8063e349556914610435578063e8094def1461044a578063eae835501461046557600080fd5b8063c4ccc596116100b0578063c4ccc596146103df578063cbc5c592146103f2578063d474f84f1461040557600080fd5b8063b8729116146103a9578063bebe4a57146103bf57600080fd5b8063598b47dd1161012d5780638fc3404b116101075780638fc3404b14610322578063aa3c44de1461034f578063b4fad6f81461037c57600080fd5b8063598b47dd146102d85780637d9ca02a146102ed5780638da5cb5b1461030257600080fd5b80632e1a7d4d1161015e5780632e1a7d4d14610261578063362651921461028357806338fa8f58146102ab57600080fd5b8063078b0fb71461017a578063239b5de0146101d4575b600080fd5b34801561018657600080fd5b506101bd6101953660046112ea565b6001600160a01b03166000908152600460208190526040909120908101546005909101549091565b6040516101cb92919061131b565b60405180910390f35b3480156101e057600080fd5b506102546101ef3660046112ea565b6040805160608082018352600080835260208084018290529284018190526001600160a01b039490941684526005825292829020825193840183525460ff80821615158552610100820481161515928501929092526201000090041615159082015290565b6040516101cb919061137b565b34801561026d57600080fd5b5061028161027c36600461139a565b6104dc565b005b34801561028f57600080fd5b5061029e66071afd498d000081565b6040516101cb91906113bb565b3480156102b757600080fd5b506102cb6102c636600461141b565b61056c565b6040516101cb919061146c565b3480156102e457600080fd5b5061029e600281565b3480156102f957600080fd5b5061029e606481565b34801561030e57600080fd5b506000546102cb906001600160a01b031681565b34801561032e57600080fd5b5061029e61033d366004611492565b60076020526000908152604090205481565b34801561035b57600080fd5b5061036f61036a3660046114b3565b6105a2565b6040516101cb919061150e565b34801561038857600080fd5b5061029e610397366004611492565b60066020526000908152604090205481565b3480156103b557600080fd5b5061029e6103e881565b3480156103cb57600080fd5b5061036f6103da3660046112ea565b6105e8565b6102816103ed36600461141b565b61061b565b610281610400366004611492565b610846565b34801561041157600080fd5b506104256104203660046112ea565b6109f1565b6040516101cb949392919061151c565b34801561044157600080fd5b5061029e603281565b34801561045657600080fd5b5061029e6611c37937e0800081565b34801561047157600080fd5b5061028161048036600461156d565b610a46565b34801561049157600080fd5b506102816104a03660046114b3565b610f3d565b3480156104b157600080fd5b506102816104c03660046112ea565b611189565b3480156104d157600080fd5b5061029e62278d0081565b6000546001600160a01b0316331461050f5760405162461bcd60e51b815260040161050690611642565b60405180910390fd5b4781111561052f5760405162461bcd60e51b8152600401610506906116da565b600080546040516001600160a01b039091169183156108fc02918491818181858888f19350505050158015610568573d6000803e3d6000fd5b5050565b600060028383604051610580929190611709565b908152604051908190036020019020546001600160a01b031690505b92915050565b6000600384846040516105b6929190611709565b90815260408051602092819003830190206001600160a01b0385166000908152925290205460ff1690505b9392505050565b6001600160a01b0381166000908152600460205260408120600381015460ff1680156105e1575060010154421092915050565b6611c37937e080003410156106425760405162461bcd60e51b81526004016105069061174a565b3360009081526005602090815260409182902082518084018452600f81527f7072696f72697479537570706f7274000000000000000000000000000000000092019190915290517f5f0f0db0381803afb7a6d710556561da92a922d448bb00478532a1ab767a2748906106b89085908590611709565b6040518091039020036106d557805460ff191660011781556107f5565b604080518082018252600c81527f637573746f6d446f6d61696e0000000000000000000000000000000000000000602090910152517f0e9b55379c2b03f40e75c0e573a284d6c6af97300463dd3601fb434d6a25acd2906107399085908590611709565b60405180910390200361075857805461ff0019166101001781556107f5565b604080518082018252600981527f616e616c79746963730000000000000000000000000000000000000000000000602090910152517f3fdbd17cead3ecfb37763e5ab06b1af4d166e44012e5a50d75711460f00454d9906107bc9085908590611709565b6040518091039020036107dd57805462ff00001916620100001781556107f5565b60405162461bcd60e51b81526004016105069061178e565b336001600160a01b03167fa7e4c577fed68d0d643eac23762a0d0a7bf2c1bd93ad160224b9b142fbfd22b184846611c37937e08000604051610839939291906117c1565b60405180910390a2505050565b3360009081526004602052604081209060068184600281111561086b5761086b6117e2565b600281111561087c5761087c6117e2565b81526020019081526020016000205490506000826005015411156108ca5760648260050154826108ac919061180e565b6108b69190611843565b6108c09082611857565b6000600584015590505b803410156108ea5760405162461bcd60e51b81526004016105069061174a565b600382015460ff1680156109015750816001015442105b156109285762278d0082600101600082825461091d919061186a565b909155506109539050565b4280835561093a9062278d009061186a565b60018084019190915560038301805460ff191690911790555b60068201805484919060ff19166001836002811115610974576109746117e2565b02179055506007600084600281111561098f5761098f6117e2565b60028111156109a0576109a06117e2565b815260208101919091526040908101600020546002840181905583546001850154925133937f64482b8b4ec00191fbaf536ab56bb397d8efc6d86b8c41ca712f144addc7a45a93610839939261187d565b6001600160a01b038116600090815260046020526040812080546001820154600283015460038401548594859485949193909260ff168015610a365750836001015442105b9450945094509450509193509193565b610a4f336105e8565b610a6b5760405162461bcd60e51b8152600401610506906118d9565b86610a885760405162461bcd60e51b81526004016105069061191d565b84610aa55760405162461bcd60e51b815260040161050690611961565b60008411610ac55760405162461bcd60e51b8152600401610506906119a5565b60006001600160a01b031660028989604051610ae2929190611709565b908152604051908190036020019020546001600160a01b031614610b185760405162461bcd60e51b8152600401610506906119e9565b3360009081526004602090815260408083206002810154600190935292205410610b545760405162461bcd60e51b815260040161050690611a2d565b6000610b5f86611208565b905080826004016000828254610b75919061186a565b909155505060048201546103e811610c155760006103e88360040154610b9b9190611843565b610ba690600a61180e565b905060328111610bb65780610bb9565b60325b60058401556004830154610bd0906103e890611a3d565b6004840155600583015460405133917f06399d5691a131b9ea716df732acdd7df7a4223509ae80d3bbf84f525d917b6991610c0b91906113bb565b60405180910390a2505b604080516101606020601f8d01819004028201810190925261014081018b81526000928291908e908e9081908501838280828437600092019190915250505090825250604080516020601f8d018190048102820181019092528b815291810191908c908c9081908401838280828437600092018290525093855250504260208085019190915260408085018d90528051808301825284815260608601528b151560808601528051938452838201815260a08501939093528251601f8a0182900482028101820190935288835260c09093019289915088908190840183828082843760009201829052509385525050604080518082018252600381527f312e3000000000000000000000000000000000000000000000000000000000006020828101919091528086019190915293810187905233835260018085529083208054918201815583529290912083519394508493600a9093020191829150610d7a9082611b49565b5060208201516001820190610d8f9082611b49565b50604082015160028201556060820151600382015560808201516004820190610db89082611b49565b5060a082015160058201805460ff191691151591909117905560c08201518051610dec916006840191602090910190611230565b5060e08201516007820190610e019082611b49565b506101008201516008820190610e179082611b49565b50610120820151816009015550503360028c8c604051610e38929190611709565b908152602001604051809103902060006101000a8154816001600160a01b0302191690836001600160a01b03160217905550600160038c8c604051610e7e929190611709565b90815260408051602092819003830181203360008181529190945291909120805460ff191693151593909317909255907fbdb665004bb4a2f95ad386c6be0bcfe8ea2a2f106bf77b60225e0ff004267a6290610ee9908e908e908e908e9042908f908f908c90611c0d565b60405180910390a2600483015460405133917f2842e91d20fa3768eaacfcd8e30aa574a84649d370e99e76222b2167ed347f0c91610f2891869161131b565b60405180910390a25050505050505050505050565b336001600160a01b031660028484604051610f59929190611709565b908152604051908190036020019020546001600160a01b031614610f8f5760405162461bcd60e51b815260040161050690611cab565b60038383604051610fa1929190611709565b90815260408051602092819003830190206001600160a01b0384166000908152925290205460ff1615610fe65760405162461bcd60e51b815260040161050690611cef565b600160038484604051610ffa929190611709565b90815260408051602092819003830190206001600160a01b038516600090815292528120805460ff1916921515929092179091555b3360009081526001602052604090205481101561112f578383604051611056929190611709565b604080519182900390912033600090815260016020529190912080548390811061108257611082611cff565b90600052602060002090600a02016000016040516110a09190611d87565b60405180910390200361111d573360009081526001602052604090208054829081106110ce576110ce611cff565b60009182526020808320600a929092029091016006018054600181018255908352912001805473ffffffffffffffffffffffffffffffffffffffff19166001600160a01b03841617905561112f565b8061112781611d93565b91505061102f565b50806001600160a01b0316336001600160a01b03168484604051611154929190611709565b604051908190038120907f8cfe3694d3c81d8f37212834f204c59322399b95a805e4351371085b98c697dc90600090a4505050565b6000546001600160a01b031633146111b35760405162461bcd60e51b815260040161050690611642565b6001600160a01b0381166111d95760405162461bcd60e51b815260040161050690611ddf565b6000805473ffffffffffffffffffffffffffffffffffffffff19166001600160a01b0392909216919091179055565b6000806112186201518084611843565b905061122560028261180e565b6105e190606461186a565b828054828255906000526020600020908101928215611292579160200282015b82811115611292578251825473ffffffffffffffffffffffffffffffffffffffff19166001600160a01b03909116178255602090920191600190910190611250565b5061129e9291506112a2565b5090565b5b8082111561129e57600081556001016112a3565b60006001600160a01b03821661059c565b6112d1816112b7565b81146112dc57600080fd5b50565b803561059c816112c8565b6000602082840312156112ff576112ff600080fd5b600061130b84846112df565b949350505050565b805b82525050565b604081016113298285611313565b6105e16020830184611313565b801515611315565b8051606083019061134f8482611336565b5060208201516113626020850182611336565b5060408201516113756040850182611336565b50505050565b6060810161059c828461133e565b806112d1565b803561059c81611389565b6000602082840312156113af576113af600080fd5b600061130b848461138f565b6020810161059c8284611313565b60008083601f8401126113de576113de600080fd5b50813567ffffffffffffffff8111156113f9576113f9600080fd5b60208301915083600182028301111561141457611414600080fd5b9250929050565b6000806020838503121561143157611431600080fd5b823567ffffffffffffffff81111561144b5761144b600080fd5b611457858286016113c9565b92509250509250929050565b611315816112b7565b6020810161059c8284611463565b600381106112dc57600080fd5b803561059c8161147a565b6000602082840312156114a7576114a7600080fd5b600061130b8484611487565b6000806000604084860312156114cb576114cb600080fd5b833567ffffffffffffffff8111156114e5576114e5600080fd5b6114f1868287016113c9565b93509350506020611504868287016112df565b9150509250925092565b6020810161059c8284611336565b6080810161152a8287611313565b6115376020830186611313565b6115446040830185611313565b6115516060830184611336565b95945050505050565b8015156112d1565b803561059c8161155a565b60008060008060008060008060a0898b03121561158c5761158c600080fd5b883567ffffffffffffffff8111156115a6576115a6600080fd5b6115b28b828c016113c9565b9850985050602089013567ffffffffffffffff8111156115d4576115d4600080fd5b6115e08b828c016113c9565b965096505060406115f38b828c0161138f565b94505060606116048b828c01611562565b935050608089013567ffffffffffffffff81111561162457611624600080fd5b6116308b828c016113c9565b92509250509295985092959890939650565b6020808252810161059c81602181527f4f6e6c79206f776e65722063616e2063616c6c20746869732066756e6374696f60208201527f6e00000000000000000000000000000000000000000000000000000000000000604082015260600190565b601481526000602082017f496e73756666696369656e742062616c616e6365000000000000000000000000815291505b5060200190565b6020808252810161059c816116a3565b82818337506000910152565b60006117038385846116ea565b50500190565b600061130b8284866116f6565b601481526000602082017f496e73756666696369656e74207061796d656e74000000000000000000000000815291506116d3565b6020808252810161059c81611716565b600f81526000602082017f496e76616c696420666561747572650000000000000000000000000000000000815291506116d3565b6020808252810161059c8161175a565b81835260006020840193506117b48385846116ea565b5050601f01601f19160190565b604080825281016117d381858761179e565b905061130b6020830184611313565b634e487b7160e01b600052602160045260246000fd5b634e487b7160e01b600052601160045260246000fd5b818102808215838204851417611826576118266117f8565b5092915050565b634e487b7160e01b600052601260045260246000fd5b6000826118525761185261182d565b500490565b8181038181111561059c5761059c6117f8565b8082018082111561059c5761059c6117f8565b6060810161188b8286611313565b6118986020830185611313565b61130b6040830184611313565b601681526000602082017f4e6f2061637469766520737562736372697074696f6e00000000000000000000815291506116d3565b6020808252810161059c816118a5565b600c81526000602082017f4349442072657175697265640000000000000000000000000000000000000000815291506116d3565b6020808252810161059c816118e9565b601281526000602082017f46696c6520747970652072657175697265640000000000000000000000000000815291506116d3565b6020808252810161059c8161192d565b601f81526000602082017f4475726174696f6e206d7573742062652067726561746572207468616e203000815291506116d3565b6020808252810161059c81611971565b601281526000602082017f43494420616c7265616479206578697374730000000000000000000000000000815291506116d3565b6020808252810161059c816119b5565b601581526000602082017f53746f72616765206c696d697420726561636865640000000000000000000000815291506116d3565b6020808252810161059c816119f9565b600082611a4c57611a4c61182d565b500690565b634e487b7160e01b600052604160045260246000fd5b634e487b7160e01b600052602260045260246000fd5b600281046001821680611a9157607f821691505b602082108103611aa357611aa3611a67565b50919050565b600061059c611ab58381565b90565b611ac183611aa9565b815460001960089490940293841b1916921b91909117905550565b6000611ae9818484611ab8565b505050565b8181101561056857611b01600082611adc565b600101611aee565b601f821115611ae9576000818152602090206020601f85010481016020851015611b305750805b611b426020601f860104830182611aee565b5050505050565b815167ffffffffffffffff811115611b6357611b63611a51565b611b6d8254611a7d565b611b78828285611b09565b6020601f831160018114611bac5760008415611b945750858201515b600019600886021c1981166002860217865550611c05565b600085815260208120601f198616915b82811015611bdc5788850151825560209485019460019092019101611bbc565b86831015611bf85784890151600019601f89166008021c191682555b6001600288020188555050505b505050505050565b60c08082528101611c1f818a8c61179e565b90508181036020830152611c3481888a61179e565b9050611c436040830187611313565b611c506060830186611313565b611c5d6080830185611336565b611c6a60a0830184611313565b9998505050505050505050565b601281526000602082017f4e6f74207468652066696c65206f776e65720000000000000000000000000000815291506116d3565b6020808252810161059c81611c77565b601d81526000602082017f416c726561647920736861726564207769746820726563697069656e74000000815291506116d3565b6020808252810161059c81611cbb565b634e487b7160e01b600052603260045260246000fd5b60008154611d2281611a7d565b600182168015611d395760018114611d4e57611d7e565b60ff1983168652811515820286019350611d7e565b60008581526020902060005b83811015611d7657815488820152600190910190602001611d5a565b838801955050505b50505092915050565b60006105e18284611d15565b60006000198203611da657611da66117f8565b5060010190565b60208082527f4e6577206f776e65722063616e6e6f74206265207a65726f2061646472657373910190815260006116d3565b6020808252810161059c81611dad56fea2646970667358221220d9025df7cca95cf11954cea7545b4395a9e0e72cd4222aed3b3348ff44114e5164736f6c63430008140033",
  "devdoc": {
    "details": "Includes support for file sharing, metadata management, subscription payments, rewards, and revenue streams",
    "kind": "dev",
    "methods": {
      "getSubscriptionDetails(address)": {
        "params": {
          "user": "Address to check"
        },
        "returns": {
          "endTime": "Subscription end time",
          "isActive": "Whether subscription is currently active",
          "startTime": "Subscription start time",
          "storageLimit": "Maximum number of files allowed"
        }
      },
      "getUserRewards(address)": {
        "params": {
          "user": "Address to check"
        },
        "returns": {
          "discount": "Current discount percentage",
          "points": "Current reward points"
        }
      },
      "hasActiveSubscription(address)": {
        "params": {
          "user": "Address to check"
        },
        "returns": {
          "isActive": "Boolean indicating if subscription is active"
        }
      },
      "purchasePremiumFeature(string)": {
        "params": {
          "feature": "The feature to purchase"
        }
      },
      "purchaseSubscription(uint8)": {
        "params": {
          "tier": "The subscription tier to purchase"
        }
      },
      "shareFile(string,address)": {
        "params": {
          "_cid": "The CID of the file to share",
          "_recipient": "The address to share the file with"
        }
      },
      "transferOwnership(address)": {
        "params": {
          "newOwner": "The address of the new owner"
        }
      },
      "uploadFile(string,string,uint256,bool,string)": {
        "params": {
          "_cid": "IPFS CID returned by Lighthouse",
          "_duration": "Duration in seconds the file should be considered valid",
          "_encryptedKey": "Optional encryption key for private files",
          "_fileType": "Type of file (e.g., \"resume\", \"publication\")",
          "_isPublic": "Whether the file should be publicly accessible"
        }
      },
      "withdraw(uint256)": {
        "params": {
          "amount": "Amount to withdraw"
        }
      }
    },
    "title": "Decentralized File Vault Smart Contract",
    "version": 1
  },
  "userdoc": {
    "kind": "user",
    "methods": {
      "getSubscriptionDetails(address)": {
        "notice": "Get subscription details for a user"
      },
      "getUserRewards(address)": {
        "notice": "Get user's reward points and discount information"
      },
      "hasActiveSubscription(address)": {
        "notice": "Check if a user has an active subscription"
      },
      "purchasePremiumFeature(string)": {
        "notice": "Purchase premium features"
      },
      "purchaseSubscription(uint8)": {
        "notice": "Purchase or renew a subscription with potential discount"
      },
      "shareFile(string,address)": {
        "notice": "Share a file with another address"
      },
      "transferOwnership(address)": {
        "notice": "Transfer ownership of the contract"
      },
      "uploadFile(string,string,uint256,bool,string)": {
        "notice": "Upload a file record to the vault"
      },
      "withdraw(uint256)": {
        "notice": "Withdraw collected fees"
      }
    },
    "notice": "Maps user wallet addresses to uploaded file CIDs stored via Lighthouse on IPFS/Filecoin",
    "version": 1
  },
  "storageLayout": {
    "storage": [
      {
        "astId": 4,
        "contract": "contracts/vault.sol:DecentralizedFileVault",
        "label": "owner",
        "offset": 0,
        "slot": "0",
        "type": "t_address"
      },
      {
        "astId": 59,
        "contract": "contracts/vault.sol:DecentralizedFileVault",
        "label": "userFiles",
        "offset": 0,
        "slot": "1",
        "type": "t_mapping(t_address,t_array(t_struct(FileRecord)30_storage)dyn_storage)"
      },
      {
        "astId": 63,
        "contract": "contracts/vault.sol:DecentralizedFileVault",
        "label": "fileOwners",
        "offset": 0,
        "slot": "2",
        "type": "t_mapping(t_string_memory_ptr,t_address)"
      },
      {
        "astId": 69,
        "contract": "contracts/vault.sol:DecentralizedFileVault",
        "label": "fileAccess",
        "offset": 0,
        "slot": "3",
        "type": "t_mapping(t_string_memory_ptr,t_mapping(t_address,t_bool))"
      },
      {
        "astId": 74,
        "contract": "contracts/vault.sol:DecentralizedFileVault",
        "label": "subscriptions",
        "offset": 0,
        "slot": "4",
        "type": "t_mapping(t_address,t_struct(Subscription)46_storage)"
      },
      {
        "astId": 79,
        "contract": "contracts/vault.sol:DecentralizedFileVault",
        "label": "premiumFeatures",
        "offset": 0,
        "slot": "5",
        "type": "t_mapping(t_address,t_struct(PremiumFeatures)53_storage)"
      },
      {
        "astId": 96,
        "contract": "contracts/vault.sol:DecentralizedFileVault",
        "label": "tierPrices",
        "offset": 0,
        "slot": "6",
        "type": "t_mapping(t_enum(SubscriptionTier)8,t_uint256)"
      },
      {
        "astId": 104,
        "contract": "contracts/vault.sol:DecentralizedFileVault",
        "label": "tierStorageLimits",
        "offset": 0,
        "slot": "7",
        "type": "t_mapping(t_enum(SubscriptionTier)8,t_uint256)"
      }
    ],
    "types": {
      "t_address": {
        "encoding": "inplace",
        "label": "address",
        "numberOfBytes": "20"
      },
      "t_array(t_address)dyn_storage": {
        "base": "t_address",
        "encoding": "dynamic_array",
        "label": "address[]",
        "numberOfBytes": "32"
      },
      "t_array(t_struct(FileRecord)30_storage)dyn_storage": {
        "base": "t_struct(FileRecord)30_storage",
        "encoding": "dynamic_array",
        "label": "struct DecentralizedFileVault.FileRecord[]",
        "numberOfBytes": "32"
      },
      "t_bool": {
        "encoding": "inplace",
        "label": "bool",
        "numberOfBytes": "1"
      },
      "t_enum(SubscriptionTier)8": {
        "encoding": "inplace",
        "label": "enum DecentralizedFileVault.SubscriptionTier",
        "numberOfBytes": "1"
      },
      "t_mapping(t_address,t_array(t_struct(FileRecord)30_storage)dyn_storage)": {
        "encoding": "mapping",
        "key": "t_address",
        "label": "mapping(address => struct DecentralizedFileVault.FileRecord[])",
        "numberOfBytes": "32",
        "value": "t_array(t_struct(FileRecord)30_storage)dyn_storage"
      },
      "t_mapping(t_address,t_bool)": {
        "encoding": "mapping",
        "key": "t_address",
        "label": "mapping(address => bool)",
        "numberOfBytes": "32",
        "value": "t_bool"
      },
      "t_mapping(t_address,t_struct(PremiumFeatures)53_storage)": {
        "encoding": "mapping",
        "key": "t_address",
        "label": "mapping(address => struct DecentralizedFileVault.PremiumFeatures)",
        "numberOfBytes": "32",
        "value": "t_struct(PremiumFeatures)53_storage"
      },
      "t_mapping(t_address,t_struct(Subscription)46_storage)": {
        "encoding": "mapping",
        "key": "t_address",
        "label": "mapping(address => struct DecentralizedFileVault.Subscription)",
        "numberOfBytes": "32",
        "value": "t_struct(Subscription)46_storage"
      },
      "t_mapping(t_enum(SubscriptionTier)8,t_uint256)": {
        "encoding": "mapping",
        "key": "t_enum(SubscriptionTier)8",
        "label": "mapping(enum DecentralizedFileVault.SubscriptionTier => uint256)",
        "numberOfBytes": "32",
        "value": "t_uint256"
      },
      "t_mapping(t_string_memory_ptr,t_address)": {
        "encoding": "mapping",
        "key": "t_string_memory_ptr",
        "label": "mapping(string => address)",
        "numberOfBytes": "32",
        "value": "t_address"
      },
      "t_mapping(t_string_memory_ptr,t_mapping(t_address,t_bool))": {
        "encoding": "mapping",
        "key": "t_string_memory_ptr",
        "label": "mapping(string => mapping(address => bool))",
        "numberOfBytes": "32",
        "value": "t_mapping(t_address,t_bool)"
      },
      "t_string_memory_ptr": {
        "encoding": "bytes",
        "label": "string",
        "numberOfBytes": "32"
      },
      "t_string_storage": {
        "encoding": "bytes",
        "label": "string",
        "numberOfBytes": "32"
      },
      "t_struct(FileRecord)30_storage": {
        "encoding": "inplace",
        "label": "struct DecentralizedFileVault.FileRecord",
        "members": [
          {
            "astId": 10,
            "contract": "contracts/vault.sol:DecentralizedFileVault",
            "label": "cid",
            "offset": 0,
            "slot": "0",
            "type": "t_string_storage"
          },
          {
            "astId": 12,
            "contract": "contracts/vault.sol:DecentralizedFileVault",
            "label": "fileType",
            "offset": 0,
            "slot": "1",
            "type": "t_string_storage"
          },
          {
            "astId": 14,
            "contract": "contracts/vault.sol:DecentralizedFileVault",
            "label": "uploadedAt",
            "offset": 0,
            "slot": "2",
            "type": "t_uint256"
          },
          {
            "astId": 16,
            "contract": "contracts/vault.sol:DecentralizedFileVault",
            "label": "duration",
            "offset": 0,
            "slot": "3",
            "type": "t_uint256"
          },
          {
            "astId": 18,
            "contract": "contracts/vault.sol:DecentralizedFileVault",
            "label": "metadata",
            "offset": 0,
            "slot": "4",
            "type": "t_string_storage"
          },
          {
            "astId": 20,
            "contract": "contracts/vault.sol:DecentralizedFileVault",
            "label": "isPublic",
            "offset": 0,
            "slot": "5",
            "type": "t_bool"
          },
          {
            "astId": 23,
            "contract": "contracts/vault.sol:DecentralizedFileVault",
            "label": "sharedWith",
            "offset": 0,
            "slot": "6",
            "type": "t_array(t_address)dyn_storage"
          },
          {
            "astId": 25,
            "contract": "contracts/vault.sol:DecentralizedFileVault",
            "label": "encryptedKey",
            "offset": 0,
            "slot": "7",
            "type": "t_string_storage"
          },
          {
            "astId": 27,
            "contract": "contracts/vault.sol:DecentralizedFileVault",
            "label": "version",
            "offset": 0,
            "slot": "8",
            "type": "t_string_storage"
          },
          {
            "astId": 29,
            "contract": "contracts/vault.sol:DecentralizedFileVault",
            "label": "rewardPoints",
            "offset": 0,
            "slot": "9",
            "type": "t_uint256"
          }
        ],
        "numberOfBytes": "320"
      },
      "t_struct(PremiumFeatures)53_storage": {
        "encoding": "inplace",
        "label": "struct DecentralizedFileVault.PremiumFeatures",
        "members": [
          {
            "astId": 48,
            "contract": "contracts/vault.sol:DecentralizedFileVault",
            "label": "hasPrioritySupport",
            "offset": 0,
            "slot": "0",
            "type": "t_bool"
          },
          {
            "astId": 50,
            "contract": "contracts/vault.sol:DecentralizedFileVault",
            "label": "hasCustomDomain",
            "offset": 1,
            "slot": "0",
            "type": "t_bool"
          },
          {
            "astId": 52,
            "contract": "contracts/vault.sol:DecentralizedFileVault",
            "label": "hasAnalytics",
            "offset": 2,
            "slot": "0",
            "type": "t_bool"
          }
        ],
        "numberOfBytes": "32"
      },
      "t_struct(Subscription)46_storage": {
        "encoding": "inplace",
        "label": "struct DecentralizedFileVault.Subscription",
        "members": [
          {
            "astId": 32,
            "contract": "contracts/vault.sol:DecentralizedFileVault",
            "label": "startTime",
            "offset": 0,
            "slot": "0",
            "type": "t_uint256"
          },
          {
            "astId": 34,
            "contract": "contracts/vault.sol:DecentralizedFileVault",
            "label": "endTime",
            "offset": 0,
            "slot": "1",
            "type": "t_uint256"
          },
          {
            "astId": 36,
            "contract": "contracts/vault.sol:DecentralizedFileVault",
            "label": "storageLimit",
            "offset": 0,
            "slot": "2",
            "type": "t_uint256"
          },
          {
            "astId": 38,
            "contract": "contracts/vault.sol:DecentralizedFileVault",
            "label": "isActive",
            "offset": 0,
            "slot": "3",
            "type": "t_bool"
          },
          {
            "astId": 40,
            "contract": "contracts/vault.sol:DecentralizedFileVault",
            "label": "rewardPoints",
            "offset": 0,
            "slot": "4",
            "type": "t_uint256"
          },
          {
            "astId": 42,
            "contract": "contracts/vault.sol:DecentralizedFileVault",
            "label": "discountPercentage",
            "offset": 0,
            "slot": "5",
            "type": "t_uint256"
          },
          {
            "astId": 45,
            "contract": "contracts/vault.sol:DecentralizedFileVault",
            "label": "tier",
            "offset": 0,
            "slot": "6",
            "type": "t_enum(SubscriptionTier)8"
          }
        ],
        "numberOfBytes": "224"
      },
      "t_uint256": {
        "encoding": "inplace",
        "label": "uint256",
        "numberOfBytes": "32"
      }
    }
  }
}